:0400000024EF05F0F4
:1008000000636173612076656E6365646F72005684
:1008100049534954414E54453A2000434153413ACB
:03082000200000B5
:10082400000E956E060E936E000E966E818E818874
:10083400000E526E000E516E72EC04F0010E01ECCB
:1008440005F081B428EF04F02AEF04F023EF04F05C
:10085400090E51185210D8B432EF04F034EF04F0FA
:100864005FEF04F0514A522A010E01EC05F0800EAC
:1008740001EC05F01B0E486E080E496EA0EC04F066
:10088400860E01EC05F04DC048F04EC049F0A0ECD6
:1008940004F0C00E01EC05F00F0E486E080E496E10
:1008A400A0EC04F0CB0E01EC05F04FC048F050C0B2
:1008B40049F0A0EC04F023EF04F0010E01EC05F084
:1008C400010E486E080E496EA0EC04F0000E456E51
:1008D400000E446E2FEC05F023EF04F000EF00F05F
:1008E40084928490000E436E140E426EC8EC04F0A1
:1008F4008482380E01EC05F0000E436E050E426E44
:10090400C8EC04F0380E01EC05F0000E436E010E45
:10091400426EC8EC04F0380E01EC05F0080E01EC50
:1009240005F00F0E01EC05F0010E01EC05F0380E98
:1009340001EC05F0800E01EC05F01200000E4C6E87
:10094400B3EF04F04C5048244A6E000E49204B6E1D
:100954004AC0F6FF4BC0F7FF0800F550ECEC04F07A
:100964004C2A4C5048244A6E000E49204B6E4AC013
:10097400F6FF4BC0F7FF0800F5500009D8A4C5EFF7
:1009840004F0C7EF04F0A4EF04F01200000E456E6B
:10099400000E446EE0EF04F0000E466E00F000F02E
:1009A40000F000F000F0462AC70E4664DCEF04F0C5
:1009B400DEEF04F0D0EF04F0444A452A4250445C90
:1009C40043504558D8A0E9EF04F0EBEF04F0CEEF24
:1009D40004F01200476E8482475038EC05F084809E
:1009E400000E436E030E426EC8EC04F08492000EB7
:1009F400436E030E426EC8EC04F084821200476E0C
:100A04008482475038EC05F08490000E436E030E48
:100A1400426EC8EC04F08492000E436E030E426EE4
:100A2400C8EC04F08482120019EF05F0410641502D
:100A3400800A7F0FD8B021EF05F023EF05F018EFFF
:100A440005F0120000EE01F0410EEE6AE806FDE149
:100A5400000EF86E000112EF04F016EC05F044C02D
:100A640042F045C043F03CEC05F01200426E42C037
:0A0A740083FF12003CEF05F01200B2
:020000040020DA
:08000000FFFFFFFFFFFFFFFF00
:020000040030CA
:0E000000290C181EFF8180FF0FC00FE00F407B
:00000001FF
