:04000000D4EF05F044
:10080000005649534954414E54452056454E4345A0
:1008100055005649534954414E54453A20004341EE
:1008200053412056454E43455500434153413A20DC
:100830000000000E956E000E936E000E966E938271
:100840009384000E0D6E000E0C6E000E0F6E000EE7
:100850000E6E30EC05F0010EBFEC05F0800EBFEC23
:1008600005F02A0E076E080E086E5EEC05F0860E87
:10087000BFEC05F0000E086E000E076EB6EC04F03B
:10088000C00EBFEC05F0120E076E080E086E5EEC8F
:1008900005F0CB0EBFEC05F0000E086E000E076EE3
:1008A000B6EC04F081B257EF04F059EF04F084EF96
:1008B00004F0090E0C180D10D8B461EF04F063EFCA
:1008C00004F079EF04F00C4A0D2A860EBFEC05F017
:1008D0000CC007F00DC008F0B6EC04F0CB0EBFEC76
:1008E00005F00EC007F00FC008F0B6EC04F084EF7E
:1008F00004F0010EBFEC05F01E0E076E080E086E28
:100900005EEC05F0B4EF04F081B489EF04F08BEFF6
:1009100004F052EF04F0090E0E180F10D8B493EF44
:1009200004F095EF04F0ABEF04F00E4A0F2A860EA8
:10093000BFEC05F00CC007F00DC008F0B6EC04F0F9
:10094000CB0EBFEC05F00EC007F00FC008F0B6EC00
:1009500004F052EF04F0010EBFEC05F0010E076E3B
:10096000080E086E5EEC05F000EF00F0075008106E
:10097000D8A4BDEF04F0BFEF04F0C1EF04F0300ED7
:10098000096E07040810D8A4C8EF04F0CAEF04F0F9
:10099000CCEF04F0310E096E020E07180810D8A42F
:1009A000D4EF04F0D6EF04F0D8EF04F0320E096E65
:1009B000030E07180810D8A4E0EF04F0E2EF04F0EB
:1009C000E4EF04F0330E096E040E07180810D8A4E3
:1009D000ECEF04F0EEEF04F0F0EF04F0340E096EEB
:1009E000050E07180810D8A4F8EF04F0FAEF04F089
:1009F000FCEF04F0350E096E060E07180810D8A497
:100A000004EF05F006EF05F008EF05F0360E096E6D
:100A1000070E07180810D8A410EF05F012EF05F024
:100A200014EF05F0370E096E080E07180810D8A449
:100A30001CEF05F01EEF05F020EF05F0380E096EF3
:100A4000090E07180810D8A428EF05F02AEF05F0C2
:100A50002CEF05F0390E096E0950AAEC05F01200D2
:100A600084928490000E026E140E016E86EC05F0E6
:100A70008482380EBFEC05F0000E026E050E016E8A
:100A800086EC05F0380EBFEC05F0000E026E010E8C
:100A9000016E86EC05F0380EBFEC05F0080EBFECD9
:100AA00005F00F0EBFEC05F0010EBFEC05F0380E9F
:100AB000BFEC05F0800EBFEC05F01200000E0B6ECF
:100AC00071EF05F00B500724096E000E08200A6E26
:100AD00009C0F6FF0AC0F7FF0800F550AAEC05F0C0
:100AE0000B2A0B500724096E000E08200A6E09C05D
:100AF000F6FF0AC0F7FF0800F5500009D8A483EFFD
:100B000005F085EF05F062EF05F01200000E046EAF
:100B1000000E036E9EEF05F0000E056E00F000F073
:100B200000F000F000F0052AC70E05649AEF05F00A
:100B30009CEF05F08EEF05F0034A042A0150035C98
:100B400002500458D8A0A7EF05F0A9EF05F08CEFEC
:100B500005F01200066E84820650D9EC05F0848000
:100B6000000E026E030E016E86EC05F08492000EFC
:100B7000026E030E016E86EC05F084821200066E92
:100B800084820650D9EC05F08490000E026E030EAC
:100B9000016E86EC05F08492000E026E030E016E6B
:100BA00086EC05F084821200000EF86E000119EF49
:0A0BB00004F0016E01C083FF120083
:020000040020DA
:08000000FFFFFFFFFFFFFFFF00
:020000040030CA
:0E000000290C181EFF8180FF0FC00FE00F407B
:00000001FF
