:04000000A5EF06F072
:10080000005649534954414E54452056454E4345A0
:1008100055005649534954414E54453A20004341EE
:1008200053412056454E43455500434153413A20DC
:100830000052455345540000000E956E000E936E15
:10084000000E966E938293849386818E000E0D6EB9
:10085000000E0C6E000E0F6E000E0E6E819E8198C3
:10086000000E8C6E01EC06F0010E90EC06F0800E8E
:1008700090EC06F02A0E076E080E086E2FEC06F0BC
:100880008B0E90EC06F0000E086E000E076E87ECE3
:1008900005F0C00E90EC06F0120E076E080E086E02
:1008A0002FEC06F0CB0E90EC06F0000E086E000E5A
:1008B000076E87EC05F0000E8C6E81B262EF04F0DB
:1008C00064EF04F09FEF04F00DBE72EF04F00D50E2
:1008D00007E1090E0C5CD8B070EF04F072EF04F081
:1008E00094EF04F00C4A0D2A8B0E90EC06F00CC02D
:1008F00007F00DC008F087EC05F0CB0E90EC06F089
:100900000EC007F00FC008F087EC05F0818E8198CB
:10091000100EFCEC04F0836E000E026E140E016EDD
:1009200057EC06F09FEF04F0010E90EC06F01E0E5F
:10093000076E080E086E2FEC06F0FAEF04F081B493
:10094000A4EF04F0A6EF04F0E1EF04F00FBEB4EF63
:1009500004F00F5007E1090E0E5CD8B0B2EF04F0BE
:10096000B4EF04F0D6EF04F00E4A0F2A8B0E90EC91
:1009700006F00CC007F00DC008F087EC05F0CB0EB8
:1009800090EC06F00EC007F00FC008F087EC05F001
:100990008188819E100EFCEC04F0836E000E026EC6
:1009A000140E016E57EC06F0E1EF04F0010E90EC2E
:1009B00006F0010E076E080E086E2FEC06F0FAEF37
:1009C00004F081B6E6EF04F0E8EF04F05BEF04F02A
:1009D000010E90EC06F0310E076E080E086E2FEC3B
:1009E00006F0000E026E640E016E57EC06F0010E6A
:1009F00090EC06F000EF00F0036E35EF05F03F0ECF
:100A000086EF05F0060E86EF05F05B0E86EF05F02B
:100A10004F0E86EF05F0660E86EF05F06D0E86EF41
:100A200005F07D0E86EF05F0070E86EF05F07F0ED0
:100A300086EF05F06F0E86EF05F0770E86EF05F076
:100A40007C0E86EF05F0580E86EF05F05E0E86EF01
:100A500005F0790E86EF05F0710E86EF05F0730E46
:100A600086EF05F0000E86EF05F00350016E026A76
:100A70000250000AD8B43FEF05F032EF05F0015004
:100A8000000AD8B4FFEF04F0010AD8B402EF05F071
:100A9000030AD8B405EF05F0010AD8B408EF05F051
:100AA000070AD8B40BEF05F0010AD8B40EEF05F031
:100AB000030AD8B411EF05F0010AD8B414EF05F019
:100AC0000F0AD8B417EF05F0010AD8B41AEF05F0F1
:100AD000030AD8B41DEF05F0010AD8B420EF05F0E1
:100AE000070AD8B423EF05F0010AD8B426EF05F0C1
:100AF000030AD8B429EF05F0010AD8B42CEF05F0A9
:100B00001F0AD8B42FEF05F032EF05F0120007509E
:100B10000810D8A48EEF05F090EF05F092EF05F0E5
:100B2000300E096E07040810D8A499EF05F09BEF6A
:100B300005F09DEF05F0310E096E020E0718081042
:100B4000D8A4A5EF05F0A7EF05F0A9EF05F0320E48
:100B5000096E030E07180810D8A4B1EF05F0B3EF23
:100B600005F0B5EF05F0330E096E040E07180810F6
:100B7000D8A4BDEF05F0BFEF05F0C1EF05F0340ECE
:100B8000096E050E07180810D8A4C9EF05F0CBEFC1
:100B900005F0CDEF05F0350E096E060E07180810AA
:100BA000D8A4D5EF05F0D7EF05F0D9EF05F0360E54
:100BB000096E070E07180810D8A4E1EF05F0E3EF5F
:100BC00005F0E5EF05F0370E096E080E071808105E
:100BD000D8A4EDEF05F0EFEF05F0F1EF05F0380EDA
:100BE000096E090E07180810D8A4F9EF05F0FBEFFD
:100BF00005F0FDEF05F0390E096E09507BEC06F0AB
:100C0000120084928490000E026E140E016E57EC56
:100C100006F08482380E90EC06F0000E026E050E8F
:100C2000016E57EC06F0380E90EC06F0000E026EE6
:100C3000010E016E57EC06F0380E90EC06F0080E2F
:100C400090EC06F00F0E90EC06F0010E90EC06F022
:100C5000380E90EC06F0800E90EC06F01200000EBC
:100C60000B6E42EF06F00B500724096E000E0820B1
:100C70000A6E09C0F6FF0AC0F7FF0800F5507BECCA
:100C800006F00B2A0B500724096E000E08200A6E8E
:100C900009C0F6FF0AC0F7FF0800F5500009D8A404
:100CA00054EF06F056EF06F033EF06F01200000E98
:100CB000046E000E036E6FEF06F0000E056E00F07E
:100CC00000F000F000F000F0052AC70E05646BEF9D
:100CD00006F06DEF06F05FEF06F0034A042A0150BC
:100CE000035C02500458D8A078EF06F07AEF06F0C3
:100CF0005DEF06F01200066E84820650AAEC06F044
:100D00008480000E026E030E016E57EC06F0849292
:100D1000000E026E030E016E57EC06F08482120084
:100D2000066E84820650AAEC06F08490000E026ED5
:100D3000030E016E57EC06F08492000E026E030E55
:100D4000016E57EC06F084821200000EF86E00016E
:0C0D50001CEF04F0016E01C083FF1200D4
:020000040020DA
:08000000FFFFFFFFFFFFFFFF00
:020000040030CA
:0E000000290C181EFF8180FF0FC00FE00F407B
:00000001FF
