:0400000022EF05F0F6
:1008000000636173612076656E6365646F72006179
:1008100070657274656920726232200043415341F1
:100820003A200000000E956E000E936E000E966E3C
:1008300093829384000E4E6E000E4D6E70EC04F0A9
:10084000010EFFEC04F081B228EF04F02AEF04F06F
:100850005CEF04F0090E4D184E10D8B432EF04F0DE
:1008600034EF04F04DEF04F04D4A4E2A010EFFEC38
:1008700004F0800EFFEC04F01C0E486E080E496E6A
:100880009EEC04F0860EFFEC04F04DC048F04EC024
:1008900049F036EC05F05CEF04F0010EFFEC04F0DB
:1008A000010E486E080E496E9EEC04F0000E456E77
:1008B000000E446E2DEC05F081B461EF04F063EF9F
:1008C00004F023EF04F00F0E486E080E496E9EEC04
:1008D00004F0010EFFEC04F023EF04F000EF00F051
:1008E00084928490000E436E140E426EC6EC04F0A7
:1008F0008482380EFFEC04F0000E436E050E426E4B
:10090000C6EC04F0380EFFEC04F0000E436E010E4E
:10091000426EC6EC04F0380EFFEC04F0080EFFEC5B
:1009200004F00F0EFFEC04F0010EFFEC04F0380EA3
:10093000FFEC04F0800EFFEC04F01200000E4C6E91
:10094000B1EF04F04C5048244A6E000E49204B6E23
:100950004AC0F6FF4BC0F7FF0800F550EAEC04F080
:100960004C2A4C5048244A6E000E49204B6E4AC017
:10097000F6FF4BC0F7FF0800F5500009D8A4C3EFFD
:1009800004F0C5EF04F0A2EF04F01200000E456E73
:10099000000E446EDEEF04F0000E466E00F000F034
:1009A00000F000F000F0462AC70E4664DAEF04F0CB
:1009B000DCEF04F0CEEF04F0444A452A4250445C98
:1009C00043504558D8A0E7EF04F0E9EF04F0CCEF2E
:1009D00004F01200476E848247503AEC05F08480A0
:1009E000000E436E030E426EC6EC04F08492000EBD
:1009F000436E030E426EC6EC04F084821200476E12
:100A0000848247503AEC05F08490000E436E030E4A
:100A1000426EC6EC04F08492000E436E030E426EEA
:100A2000C6EC04F08482120017EF05F04106415035
:100A3000800A7F0FD8B01FEF05F021EF05F016EF09
:100A400005F0120000EE01F0410EEE6AE806FDE14D
:100A5000000EF86E000112EF04F014EC05F044C033
:100A600042F045C043F03EEC05F012004850EAEC7D
:100A700004F01200426E42C083FF12003EEF05F008
:020A8000120062
:020000040020DA
:08000000FFFFFFFFFFFFFFFF00
:020000040030CA
:0E000000290C181EFF8180FF0FC00FE00F407B
:00000001FF
