:040000001DEF06F0FA
:10080000005649534954414E54453A200056454EEE
:100810004345444F52212121005649534954414EEA
:10082000544500434153413A20005245534554003A
:10083000434153410000000E956E000E936E000E72
:10084000966E938293849386818E000E0D6E000EB9
:100850000C6E000E0F6E000E0E6E819E8198000EC3
:100860008C6E79EC05F0010E08EC06F0800E08ECB9
:1008700006F0230E076E080E086EA7EC05F0860E34
:1008800008EC06F0000E086E000E076EFFEC04F098
:10089000C00E08EC06F0010E076E080E086EA7ECFD
:1008A00005F0CB0E08EC06F0000E086E000E076E89
:1008B000FFEC04F0000E8C6E81B261EF04F063EF88
:1008C00004F0A0EF04F00DBE71EF04F00D5007E14D
:1008D000090E0C5CD8B06FEF04F071EF04F089EFF3
:1008E00004F00C4A0D2A860E08EC06F00CC007F046
:1008F0000DC008F0FFEC04F0CB0E08EC06F00EC0C3
:1009000007F00FC008F0FFEC04F0819E8198A0EF83
:1009100004F0010E08EC06F0800E08EC06F0300E34
:10092000076E080E086EA7EC05F0C00E08EC06F086
:100930000D0E076E080E086EA7EC05F0FDEF04F033
:1009400081B4A5EF04F0A7EF04F0E4EF04F00FBECC
:10095000B5EF04F00F5007E1090E0E5CD8B0B3EF0D
:1009600004F0B5EF04F0CDEF04F00E4A0F2A860E26
:1009700008EC06F00CC007F00DC008F0FFEC04F026
:10098000CB0E08EC06F00EC007F00FC008F0FFEC2D
:1009900004F08188819EE4EF04F0010E08EC06F07B
:1009A000800E08EC06F0190E076E080E086EA7EC14
:1009B00005F0C00E08EC06F00D0E076E080E086E6E
:1009C000A7EC05F0FDEF04F081B6E9EF04F0EBEFE2
:1009D00004F05AEF04F0010E08EC06F02A0E076E40
:1009E000080E086EA7EC05F0000E026E640E016E94
:1009F000CFEC05F0010E08EC06F000EF00F0075018
:100A00000810D8A406EF05F008EF05F00AEF05F08E
:100A1000300E096E07040810D8A411EF05F013EF8B
:100A200005F015EF05F0310E096E020E07180810DB
:100A3000D8A41DEF05F01FEF05F021EF05F0320EF1
:100A4000096E030E07180810D8A429EF05F02BEF44
:100A500005F02DEF05F0330E096E040E071808108F
:100A6000D8A435EF05F037EF05F039EF05F0340E77
:100A7000096E050E07180810D8A441EF05F043EFE2
:100A800005F045EF05F0350E096E060E0718081043
:100A9000D8A44DEF05F04FEF05F051EF05F0360EFD
:100AA000096E070E07180810D8A459EF05F05BEF80
:100AB00005F05DEF05F0370E096E080E07180810F7
:100AC000D8A465EF05F067EF05F069EF05F0380E83
:100AD000096E090E07180810D8A471EF05F073EF1E
:100AE00005F075EF05F0390E096E0950F3EC05F0CD
:100AF000120084928490000E026E140E016ECFECF0
:100B000005F08482380E08EC06F0000E026E050E29
:100B1000016ECFEC05F0380E08EC06F0000E026E08
:100B2000010E016ECFEC05F0380E08EC06F0080E51
:100B300008EC06F00F0E08EC06F0010E08EC06F0CB
:100B4000380E08EC06F0800E08EC06F01200000EDD
:100B50000B6EBAEF05F00B500724096E000E08204B
:100B60000A6E09C0F6FF0AC0F7FF0800F550F3EC63
:100B700005F00B2A0B500724096E000E08200A6EA0
:100B800009C0F6FF0AC0F7FF0800F5500009D8A415
:100B9000CCEF05F0CEEF05F0ABEF05F01200000E44
:100BA000046E000E036EE7EF05F0000E056E00F018
:100BB00000F000F000F000F0052AC70E0564E3EF36
:100BC00005F0E5EF05F0D7EF05F0034A042A0150E0
:100BD000035C02500458D8A0F0EF05F0F2EF05F0E6
:100BE000D5EF05F01200066E8482065022EC06F066
:100BF0008480000E026E030E016ECFEC05F084922D
:100C0000000E026E030E016ECFEC05F0848212001E
:100C1000066E8482065022EC06F08490000E026E6E
:100C2000030E016ECFEC05F08492000E026E030EEF
:100C3000016ECFEC05F084821200000EF86E000108
:0C0C40001BEF04F0016E01C083FF1200E6
:020000040020DA
:08000000FFFFFFFFFFFFFFFF00
:020000040030CA
:0E000000290C181EFF8180FF0FC00FE00F407B
:00000001FF
