:0400000006EF06F011
:10080000005649534954414E54452056454E4345A0
:1008100055005649534954414E54453A20004341EE
:1008200053412056454E43455500434153413A20DC
:100830000052455345540000000E956E000E936E15
:10084000000E966E938293849386818E000E0D6EB9
:10085000000E0C6E000E0F6E000E0E6E819E8198C3
:10086000000E8C6E62EC05F0010EF1EC05F0800ECE
:10087000F1EC05F02A0E076E080E086E90EC05F0FC
:10088000860EF1EC05F0000E086E000E076EE8EC27
:1008900004F0C00EF1EC05F0120E076E080E086EA3
:1008A00090EC05F0CB0EF1EC05F0000E086E000E9A
:1008B000076EE8EC04F0000E8C6E81B262EF04F07B
:1008C00064EF04F095EF04F00DBE72EF04F00D50EC
:1008D00007E1090E0C5CD8B070EF04F072EF04F081
:1008E0008AEF04F00C4A0D2A860EF1EC05F00CC0DC
:1008F00007F00DC008F0E8EC04F0CB0EF1EC05F0C9
:100900000EC007F00FC008F0E8EC04F0819E81985B
:1009100095EF04F0010EF1EC05F01E0E076E080EC7
:10092000086E90EC05F0E6EF04F081B49AEF04F065
:100930009CEF04F0CDEF04F00FBEAAEF04F00F50CF
:1009400007E1090E0E5CD8B0A8EF04F0AAEF04F09E
:10095000C2EF04F00E4A0F2A860EF1EC05F00CC02F
:1009600007F00DC008F0E8EC04F0CB0EF1EC05F058
:100970000EC007F00FC008F0E8EC04F08188819EFB
:10098000CDEF04F0010EF1EC05F0010E076E080E3C
:10099000086E90EC05F0E6EF04F081B6D2EF04F0BB
:1009A000D4EF04F05BEF04F0010EF1EC05F0310E32
:1009B000076E080E086E90EC05F0000E026E640ED5
:1009C000016EB8EC05F0010EF1EC05F000EF00F05F
:1009D00007500810D8A4EFEF04F0F1EF04F0F3EFA4
:1009E00004F0300E096E07040810D8A4FAEF04F0E2
:1009F000FCEF04F0FEEF04F0310E096E020E071852
:100A00000810D8A406EF05F008EF05F00AEF05F08E
:100A1000320E096E030E07180810D8A412EF05F065
:100A200014EF05F016EF05F0330E096E040E0718EB
:100A30000810D8A41EEF05F020EF05F022EF05F016
:100A4000340E096E050E07180810D8A42AEF05F019
:100A50002CEF05F02EEF05F0350E096E060E071887
:100A60000810D8A436EF05F038EF05F03AEF05F09E
:100A7000360E096E070E07180810D8A442EF05F0CD
:100A800044EF05F046EF05F0370E096E080E071823
:100A90000810D8A44EEF05F050EF05F052EF05F026
:100AA000380E096E090E07180810D8A45AEF05F081
:100AB0005CEF05F05EEF05F0390E096E0950DCECD5
:100AC00005F0120084928490000E026E140E016EE6
:100AD000B8EC05F08482380EF1EC05F0000E026EE1
:100AE000050E016EB8EC05F0380EF1EC05F0000EC5
:100AF000026E010E016EB8EC05F0380EF1EC05F057
:100B0000080EF1EC05F00F0EF1EC05F0010EF1EC22
:100B100005F0380EF1EC05F0800EF1EC05F0120056
:100B2000000E0B6EA3EF05F00B500724096E000EAC
:100B300008200A6E09C0F6FF0AC0F7FF0800F5504A
:100B4000DCEC05F00B2A0B500724096E000E082080
:100B50000A6E09C0F6FF0AC0F7FF0800F550000949
:100B6000D8A4B5EF05F0B7EF05F094EF05F012004B
:100B7000000E046E000E036ED0EF05F0000E056E41
:100B800000F000F000F000F000F0052AC70E056448
:100B9000CCEF05F0CEEF05F0C0EF05F0034A042AD4
:100BA0000150035C02500458D8A0D9EF05F0DBEFE8
:100BB00005F0BEEF05F01200066E848206500BECC5
:100BC00006F08480000E026E030E016EB8EC05F094
:100BD0008492000E026E030E016EB8EC05F0848262
:100BE0001200066E848206500BEC06F08490000E14
:100BF000026E030E016EB8EC05F08492000E026ED8
:100C0000030E016EB8EC05F084821200000EF86E3F
:0E0C100000011CEF04F0016E01C083FF120012
:020000040020DA
:08000000FFFFFFFFFFFFFFFF00
:020000040030CA
:0E000000290C181EFF8180FF0FC00FE00F407B
:00000001FF
