:040000006EEF06F0A9
:10080000007669736974616E74652076656E6365E0
:10081000646F7200636173612076656E6365646FF7
:1008200072005649534954414E54453A20004341C1
:1008300053413A2000300000000E956E000E936E7A
:10084000000E966E93829384000E4E6E000E4D6ED7
:10085000000E506E000E4F6EE4EC05F0010E4BECF6
:1008600006F0800E4BEC06F02E0E486E080E496E18
:10087000A8EC05F0C00E4BEC06F0220E486E080EF8
:10088000496EA8EC05F081B248EF04F04AEF04F09D
:100890007FEF04F0090E4D184E10D8B452EF04F05B
:1008A00054EF04F070EF04F04D4A4E2A860E4BECE4
:1008B00006F04DC042F04EC043F033EC05F042C0AC
:1008C00048F043C049F0A8EC05F0CB0E4BEC06F025
:1008D0004FC048F050C049F0B9EC04F07FEF04F08D
:1008E000010E4BEC06F0140E486E080E496EA8EC93
:1008F00005F0000E456E000E446E79EC06F081B4F2
:1009000084EF04F086EF04F043EF04F0090E4F1873
:100910005010D8B48EEF04F090EF04F0A6EF04F07E
:100920004F4A502A860E4BEC06F04DC048F04EC0A0
:1009300049F0B9EC04F0CB0E4BEC06F04FC048F098
:1009400050C049F0B9EC04F043EF04F0010E4BEC59
:1009500006F0010E486E080E496EA8EC05F0000E78
:10096000456E000E446E79EC06F043EF04F000EFA4
:1009700000F048504910D8A4C0EF04F0C2EF04F0D2
:10098000C4EF04F0350E4A6E48044910D8A4CBEFEA
:1009900004F0CDEF04F0CFEF04F0310E4A6E020EFA
:1009A00048184910D8A4D7EF04F0D9EF04F0DBEFD2
:1009B00004F0320E4A6E030E48184910D8A4E3EF33
:1009C00004F0E5EF04F0E7EF04F0330E4A6E040E96
:1009D00048184910D8A4EFEF04F0F1EF04F0F3EF5A
:1009E00004F0340E4A6E050E48184910D8A4FBEFE7
:1009F00004F0FDEF04F0FFEF04F0350E4A6E060E32
:100A000048184910D8A407EF05F009EF05F00BEFDF
:100A100005F0360E4A6E070E48184910D8A413EF99
:100A200005F015EF05F017EF05F0370E4A6E080ECA
:100A300048184910D8A41FEF05F021EF05F023EF67
:100A400005F0380E4A6E090E48184910D8A42BEF4D
:100A500005F02DEF05F02FEF05F0390E4A6E4A50E4
:100A600036EC06F0120071EF05F0300E426E000E0B
:100A7000436EA7EF05F0310E426E000E436EA7EFF6
:100A800005F0320E426E000E436EA7EF05F0330EF6
:100A9000426E000E436EA7EF05F0340E426E000E5C
:100AA000436EA7EF05F0350E426E000E436EA7EFC2
:100AB00005F0360E426E000E436EA7EF05F0370EBE
:100AC000426E000E436EA7EF05F0380E426E000E28
:100AD000436EA7EF05F0390E426E000E436EA7EF8E
:100AE00005F042C044F043C045F04550000AD8B478
:100AF0007CEF05F0A7EF05F04450000AD8B435EFBD
:100B000005F0010AD8B43BEF05F0030AD8B441EF71
:100B100005F0010AD8B447EF05F0070AD8B44DEF45
:100B200005F0010AD8B453EF05F0030AD8B459EF21
:100B300005F0010AD8B45FEF05F00F0AD8B465EFED
:100B400005F0010AD8B46BEF05F0A7EF05F012002D
:100B5000000E4C6EC5EF05F04C5048244A6E000E56
:100B600049204B6E4AC0F6FF4BC0F7FFF86A070EEC
:100B7000F76403D00800F55005D0F6CFE9FFF7CFB2
:100B8000EAFFEF5036EC06F04C2A4C5048244A6EEF
:100B9000000E49204B6E4AC0F6FF4BC0F7FFF86AC3
:100BA000070EF76403D00800F55005D0F6CFE9FF33
:100BB000F7CFEAFFEF500009D8A4E1EF05F0E3EF2B
:100BC00005F0ACEF05F0120084928490000E436EA5
:100BD000140E426E12EC06F08482380E4BEC06F0D6
:100BE000000E436E050E426E12EC06F0380E4BEC12
:100BF00006F0000E436E010E426E12EC06F0380E47
:100C00004BEC06F0080E4BEC06F00F0E4BEC06F02A
:100C1000010E4BEC06F0380E4BEC06F0800E4BEC60
:100C200006F01200000E456E000E446E2AEF06F02C
:100C3000000E466E00F000F000F000F000F0462AD2
:100C4000C70E466426EF06F028EF06F01AEF06F00E
:100C5000444A452A4250445C43504558D8A033EF9B
:100C600006F035EF06F018EF06F01200476E8482AA
:100C7000475082EC06F08480000E436E030E426EF5
:100C800012EC06F08492000E436E030E426E12ECDC
:100C900006F084821200476E8482475082EC06F090
:100CA0008490000E436E030E426E12EC06F08492A6
:100CB000000E436E030E426E12EC06F084821200A8
:100CC00063EF06F041064150800A7F0FD8B06BEF0A
:100CD00006F06DEF06F062EF06F0120000EE01F094
:100CE000410EEE6AE806FDE1000EF86E00011CEF11
:100CF00004F060EC06F044C042F045C043F086ECDE
:100D000006F01200426E42C083FF120086EF06F02A
:020D10001200CF
:020000040020DA
:08000000FFFFFFFFFFFFFFFF00
:020000040030CA
:0E000000290C181EFF8180FF0FC00FE00F407B
:00000001FF
