:04000000B0EF06F067
:10080000005649534954414E54453A200056454EEE
:100810004345444F52212121005649534954414EEA
:10082000544500434153413A20005245534554003A
:10083000434153410000000E956E000E936E000E72
:10084000966E9382938493869380818E000E0D6EB4
:10085000000E0C6E000E0F6E000E0E6E819E8198C3
:10086000000E8C6E0CEC06F0010E9BEC06F0800E78
:100870009BEC06F0230E076E080E086E3AEC06F0AD
:100880008B0E9BEC06F0000E086E000E076EA8ECB7
:1008900005F0C00E9BEC06F0010E076E080E086E08
:1008A0003AEC06F0CB0E9BEC06F0000E086E000E44
:1008B000076EA8EC05F0000E8C6E8198819E81B2C7
:1008C00064EF04F066EF04F0ADEF04F00DBE74EFDA
:1008D00004F00D5007E1090E0C5CD8B072EF04F083
:1008E00074EF04F096EF04F00C4A0D2A8B0E9BEC8B
:1008F00006F00CC007F00DC008F0A8EC05F0CB0E18
:100900009BEC06F00EC007F00FC008F0A8EC05F055
:10091000818E8198100E1DEC05F0836E000E026E24
:10092000190E016E62EC06F0ADEF04F0010E9BECC7
:1009300006F0800E9BEC06F0300E076E080E086E77
:100940003AEC06F0C00E9BEC06F00D0E076E080E9A
:10095000086E3AEC06F01BEF05F081B4B2EF04F03C
:10096000B4EF04F0FBEF04F00FBEC2EF04F00F5041
:1009700007E1090E0E5CD8B0C0EF04F0C2EF04F03E
:10098000E4EF04F00E4A0F2A8B0E9BEC06F00CC02D
:1009900007F00DC008F0A8EC05F0CB0E9BEC06F0BC
:1009A0000EC007F00FC008F0A8EC05F08188819E0A
:1009B000100E1DEC05F0836E000E026E190E016E16
:1009C00062EC06F0FBEF04F0010E9BEC06F0800EEB
:1009D0009BEC06F0190E076E080E086E3AEC06F056
:1009E000C00E9BEC06F00D0E076E080E086E3AEC7A
:1009F00006F01BEF05F081A600EF05F002EF05F011
:100A000009EF05F081B007EF05F009EF05F05BEFA6
:100A100004F0010E9BEC06F02A0E076E080E086E1D
:100A20003AEC06F0000E026E640E016E62EC06F007
:100A3000010E9BEC06F000EF00F0036E56EF05F0A0
:100A40003F0EA7EF05F0060EA7EF05F05B0EA7EF30
:100A500005F04F0EA7EF05F0660EA7EF05F06D0E3F
:100A6000A7EF05F07D0EA7EF05F0070EA7EF05F045
:100A70007F0EA7EF05F06F0EA7EF05F0770EA7EF3B
:100A800005F07C0EA7EF05F0580EA7EF05F05E0EFF
:100A9000A7EF05F0790EA7EF05F0710EA7EF05F0AF
:100AA000730EA7EF05F0000EA7EF05F00350016EDF
:100AB000026A0250000AD8B460EF05F053EF05F067
:100AC0000150000AD8B420EF05F0010AD8B423EF92
:100AD00005F0030AD8B426EF05F0010AD8B429EFCF
:100AE00005F0070AD8B42CEF05F0010AD8B42FEFAF
:100AF00005F0030AD8B432EF05F0010AD8B435EF97
:100B000005F00F0AD8B438EF05F0010AD8B43BEF6E
:100B100005F0030AD8B43EEF05F0010AD8B441EF5E
:100B200005F0070AD8B444EF05F0010AD8B447EF3E
:100B300005F0030AD8B44AEF05F0010AD8B44DEF26
:100B400005F01F0AD8B450EF05F053EF05F012007E
:100B5000D2EF05F0300E0B6E08EF06F0310E0B6E83
:100B600008EF06F0320E0B6E08EF06F0330E0B6E38
:100B700008EF06F0340E0B6E08EF06F0350E0B6E24
:100B800008EF06F0360E0B6E08EF06F0370E0B6E10
:100B900008EF06F0380E0B6E08EF06F0390E0B6EFC
:100BA00008EF06F007C009F008C00AF00A50000A72
:100BB000D8B4DDEF05F008EF06F00950000AD8B40C
:100BC000AAEF05F0010AD8B4AEEF05F0030AD8B4D5
:100BD000B2EF05F0010AD8B4B6EF05F0070AD8B4B1
:100BE000BAEF05F0010AD8B4BEEF05F0030AD8B495
:100BF000C2EF05F0010AD8B4C6EF05F00F0AD8B469
:100C0000CAEF05F0010AD8B4CEEF05F008EF06F000
:100C10000B5086EC06F0120084928490000E026E57
:100C2000140E016E62EC06F08482380E9BEC06F026
:100C3000000E026E050E016E62EC06F0380E9BECA3
:100C400006F0000E026E010E016E62EC06F0380E28
:100C50009BEC06F0080E9BEC06F00F0E9BEC06F0EA
:100C6000010E9BEC06F0380E9BEC06F0800E9BEC20
:100C700006F01200000E0B6E4DEF06F00B5007242D
:100C8000096E000E08200A6E09C0F6FF0AC0F7FFC1
:100C90000800F55086EC06F00B2A0B500724096E6D
:100CA000000E08200A6E09C0F6FF0AC0F7FF080010
:100CB000F5500009D8A45FEF06F061EF06F03EEFB3
:100CC00006F01200000E046E000E036E7AEF06F0BE
:100CD000000E056E00F000F000F000F000F0052AB4
:100CE000C70E056476EF06F078EF06F06AEF06F0BF
:100CF000034A042A0150035C02500458D8A083EF31
:100D000006F085EF06F068EF06F01200066E8482AA
:100D10000650B5EC06F08480000E026E030E016EE4
:100D200062EC06F08492000E026E030E016E62EC1D
:100D300006F084821200066E84820650B5EC06F03E
:100D40008490000E026E030E016E62EC06F0849237
:100D5000000E026E030E016E62EC06F08482120039
:100D6000000EF86E00011BEF04F0016E01C083FF5E
:020D700012006F
:020000040020DA
:08000000FFFFFFFFFFFFFFFF00
:020000040030CA
:0E000000290C181EFF8180FF0FC00FE00F407B
:00000001FF
