:0400000002EF06F015
:10080000005649534954414E54452056454E4345A0
:1008100055005649534954414E54453A20004341EE
:1008200053412056454E43455500434153413A20DC
:100830000052455345540000000E956E000E936E15
:10084000000E966E938293849386818E000E0D6EB9
:10085000000E0C6E000E0F6E000E0E6E5EEC05F0BC
:10086000010EEDEC05F0800EEDEC05F02A0E076EA2
:10087000080E086E8CEC05F0860EEDEC05F0000E0F
:10088000086E000E076EE4EC04F0C00EEDEC05F00F
:10089000120E076E080E086E8CEC05F0CB0EEDEC18
:1008A00005F0000E086E000E076EE4EC04F0000E7A
:1008B0008C6E81B25EEF04F060EF04F091EF04F013
:1008C0000DBE6EEF04F00D5007E1090E0C5CD8B0C0
:1008D0006CEF04F06EEF04F086EF04F00C4A0D2A82
:1008E000860EEDEC05F00CC007F00DC008F0E4EC4E
:1008F00004F0CB0EEDEC05F00EC007F00FC008F0D1
:10090000E4EC04F0818E819891EF04F0010EEDEC9F
:1009100005F01E0E076E080E086E8CEC05F0E2EF77
:1009200004F081B496EF04F098EF04F0C9EF04F0FE
:100930000FBEA6EF04F00F5007E1090E0E5CD8B011
:10094000A4EF04F0A6EF04F0BEEF04F00E4A0F2A65
:10095000860EEDEC05F00CC007F00DC008F0E4ECDD
:1009600004F0CB0EEDEC05F00EC007F00FC008F060
:10097000E4EC04F08188819EC9EF04F0010EEDECF7
:1009800005F0010E076E080E086E8CEC05F0E2EF24
:1009900004F081B6CEEF04F0D0EF04F057EF04F08E
:1009A000010EEDEC05F0310E076E080E086E8CECB2
:1009B00005F0000E026E640E016EB4EC05F0010E3F
:1009C000EDEC05F000EF00F007500810D8A4EBEFB5
:1009D00004F0EDEF04F0EFEF04F0300E096E0704C1
:1009E0000810D8A4F6EF04F0F8EF04F0FAEF04F0E2
:1009F000310E096E020E07180810D8A402EF05F098
:100A000004EF05F006EF05F0320E096E030E07182D
:100A10000810D8A40EEF05F010EF05F012EF05F066
:100A2000330E096E040E07180810D8A41AEF05F04B
:100A30001CEF05F01EEF05F0340E096E050E0718C9
:100A40000810D8A426EF05F028EF05F02AEF05F0EE
:100A5000350E096E060E07180810D8A432EF05F0FF
:100A600034EF05F036EF05F0360E096E070E071865
:100A70000810D8A43EEF05F040EF05F042EF05F076
:100A8000370E096E080E07180810D8A44AEF05F0B3
:100A90004CEF05F04EEF05F0380E096E090E071801
:100AA0000810D8A456EF05F058EF05F05AEF05F0FE
:100AB000390E096E0950D8EC05F01200849284902A
:100AC000000E026E140E016EB4EC05F08482380E36
:100AD000EDEC05F0000E026E050E016EB4EC05F0B3
:100AE000380EEDEC05F0000E026E010E016EB4EC56
:100AF00005F0380EEDEC05F0080EEDEC05F00F0EEC
:100B0000EDEC05F0010EEDEC05F0380EEDEC05F026
:100B1000800EEDEC05F01200000E0B6E9FEF05F05D
:100B20000B500724096E000E08200A6E09C0F6FF5C
:100B30000AC0F7FF0800F550D8EC05F00B2A0B505F
:100B40000724096E000E08200A6E09C0F6FF0AC0CD
:100B5000F7FF0800F5500009D8A4B1EF05F0B3EF96
:100B600005F090EF05F01200000E046E000E036E0B
:100B7000CCEF05F0000E056E00F000F000F000F084
:100B800000F0052AC70E0564C8EF05F0CAEF05F0AE
:100B9000BCEF05F0034A042A0150035C02500458DC
:100BA000D8A0D5EF05F0D7EF05F0BAEF05F01200A9
:100BB000066E8482065007EC06F08480000E026EFA
:100BC000030E016EB4EC05F08492000E026E030E6B
:100BD000016EB4EC05F084821200066E8482065029
:100BE00007EC06F08490000E026E030E016EB4EC6A
:100BF00005F08492000E026E030E016EB4EC05F057
:100C000084821200000EF86E00011CEF04F0016EE9
:060C100001C083FF120089
:020000040020DA
:08000000FFFFFFFFFFFFFFFF00
:020000040030CA
:0E000000290C181EFF8180FF0FC00FE00F407B
:00000001FF
