:0400000009EF06F00E
:10080000007669736974616E74652076656E6365E0
:10081000646F7200636173612076656E6365646FF7
:1008200072005649534954414E54453A20004341C1
:1008300053413A2000300000000E956E000E936E7A
:10084000000E966E93829384000E4E6E000E4D6ED7
:10085000000E506E000E4F6E57EC05F0010EE6ECE8
:1008600005F0800EE6EC05F02E0E486E080E496E7F
:1008700085EC05F0C00EE6EC05F0220E486E080E81
:10088000496E85EC05F081B248EF04F04AEF04F0C0
:100890008EEF04F0090E4D184E10D8B452EF04F04C
:1008A00054EF04F07FEF04F04D4A4E2A010EE6ECBF
:1008B00005F0800EE6EC05F02E0E486E080E496E2F
:1008C00085EC05F0860EE6EC05F04DC048F04EC014
:1008D00049F0DDEC04F0C00EE6EC05F0220E486EA7
:1008E000080E496E85EC05F0CB0EE6EC05F04FC026
:1008F00048F050C049F0DDEC04F08EEF04F0010E3A
:10090000E6EC05F0140E486E080E496E85EC05F015
:10091000000E456E000E446E14EC06F081B493EFA9
:1009200004F095EF04F043EF04F0090E4F18501057
:10093000D8B49DEF04F09FEF04F0CAEF04F04F4AE3
:10094000502A010EE6EC05F0800EE6EC05F02E0EC6
:10095000486E080E496E85EC05F0860EE6EC05F053
:100960004DC048F04EC049F0DDEC04F0C00EE6EC9E
:1009700005F0220E486E080E496E85EC05F0CB0E90
:10098000E6EC05F04FC048F050C049F0DDEC04F053
:1009900043EF04F0010EE6EC05F0010E486E080E80
:1009A000496E85EC05F0000E456E000E446E14ECA9
:1009B00006F043EF04F000EF00F048504910D8A4CF
:1009C000E4EF04F0E6EF04F0E8EF04F0350E4A6ED1
:1009D00048044910D8A4EFEF04F0F1EF04F0F3EF6E
:1009E00004F0310E4A6E020E48184910D8A4FBEFED
:1009F00004F0FDEF04F0FFEF04F0320E4A6E030E38
:100A000048184910D8A407EF05F009EF05F00BEFDF
:100A100005F0330E4A6E040E48184910D8A413EF9F
:100A200005F015EF05F017EF05F0340E4A6E050ED0
:100A300048184910D8A41FEF05F021EF05F023EF67
:100A400005F0350E4A6E060E48184910D8A42BEF53
:100A500005F02DEF05F02FEF05F0360E4A6E070E6C
:100A600048184910D8A437EF05F039EF05F03BEFEF
:100A700005F0370E4A6E080E48184910D8A443EF07
:100A800005F045EF05F047EF05F0380E4A6E090E08
:100A900048184910D8A44FEF05F051EF05F053EF77
:100AA00005F0390E4A6E4A50D1EC05F012008492DE
:100AB0008490000E436E140E426EADEC05F08482FD
:100AC000380EE6EC05F0000E436E050E426EADECFE
:100AD00005F0380EE6EC05F0000E436E010E426E96
:100AE000ADEC05F0380EE6EC05F0080EE6EC05F08E
:100AF0000F0EE6EC05F0010EE6EC05F0380EE6EC24
:100B000005F0800EE6EC05F01200000E4C6E98EF3A
:100B100005F04C5048244A6E000E49204B6E4AC0E6
:100B2000F6FF4BC0F7FF0800F550D1EC05F04C2A5A
:100B30004C5048244A6E000E49204B6E4AC0F6FFC6
:100B40004BC0F7FF0800F5500009D8A4AAEF05F044
:100B5000ACEF05F089EF05F01200000E456E000EB7
:100B6000446EC5EF05F0000E466E00F000F000F098
:100B700000F000F0462AC70E4664C1EF05F0C3EF4F
:100B800005F0B5EF05F0444A452A4250445C435015
:100B90004558D8A0CEEF05F0D0EF05F0B3EF05F043
:100BA0001200476E848247501DEC06F08480000ED0
:100BB000436E030E426EADEC05F08492000E436E60
:100BC000030E426EADEC05F084821200476E848203
:100BD00047501DEC06F08490000E436E030E426EEB
:100BE000ADEC05F08492000E436E030E426EADEC48
:100BF00005F084821200FEEF05F041064150800AA4
:100C00007F0FD8B006EF06F008EF06F0FDEF05F015
:100C1000120000EE01F0410EEE6AE806FDE1000E62
:100C2000F86E00011CEF04F0FBEC05F044C042F04C
:100C300045C043F021EC06F01200426E42C083FF33
:080C4000120021EF06F0120082
:020000040020DA
:08000000FFFFFFFFFFFFFFFF00
:020000040030CA
:0E000000290C181EFF8180FF0FC00FE00F407B
:00000001FF
