:0400000099EF05F07F
:1008000000636173612076656E6365646F72006179
:1008100070657274656920726232200043415341F1
:100820003A20003000310032003300340035003609
:1008300000370038000048504910D8A422EF04F0D7
:1008400024EF04F026EF04F0230E4A6E480449100A
:10085000D8A42DEF04F02FEF04F031EF04F0250EB3
:100860004A6E020E48184910D8A439EF04F03BEF45
:1008700004F03DEF04F0270E4A6E030E48184910AD
:10088000D8A445EF04F047EF04F049EF04F0290E37
:100890004A6E040E48184910D8A451EF04F053EFE3
:1008A00004F055EF04F02B0E4A6E050E481849105F
:1008B000D8A45DEF04F05FEF04F061EF04F02D0EBB
:1008C0004A6E060E48184910D8A469EF04F06BEF81
:1008D00004F06DEF04F02F0E4A6E070E4818491011
:1008E000D8A475EF04F077EF04F079EF04F0310E3F
:1008F0004A6E080E48184910D8A481EF04F083EF1F
:1009000004F085EF04F0330E4A6E4A5061EC05F0B6
:100910001200000E956E000E936E000E966E93827E
:100920009384000E4E6E000E4D6EE7EC04F0010E47
:1009300076EC05F081B29FEF04F0A1EF04F0D3EF65
:1009400004F0090E4D184E10D8B4A9EF04F0ABEF27
:1009500004F0C4EF04F04D4A4E2A010E76EC05F087
:10096000800E76EC05F01C0E486E080E496E15ECF4
:1009700005F0860E76EC05F04DC048F04EC049F00B
:100980001BEC04F0D3EF04F0010E76EC05F0010E41
:10099000486E080E496E15EC05F0000E456E000E0F
:1009A000446EA4EC05F081B4D8EF04F0DAEF04F063
:1009B0009AEF04F00F0E486E080E496E15EC05F024
:1009C000010E76EC05F09AEF04F000EF00F084924F
:1009D0008490000E436E140E426E3DEC05F084824E
:1009E000380E76EC05F0000E436E050E426E3DECBF
:1009F00005F0380E76EC05F0000E436E010E426EE7
:100A00003DEC05F0380E76EC05F0080E76EC05F0BE
:100A10000F0E76EC05F0010E76EC05F0380E76EC54
:100A200005F0800E76EC05F01200000E4C6E28EFFB
:100A300005F04C5048244A6E000E49204B6E4AC0C7
:100A4000F6FF4BC0F7FF0800F55061EC05F04C2AAB
:100A50004C5048244A6E000E49204B6E4AC0F6FFA7
:100A60004BC0F7FF0800F5500009D8A43AEF05F095
:100A70003CEF05F019EF05F01200000E456E000E78
:100A8000446E55EF05F0000E466E00F000F000F0E9
:100A900000F000F0462AC70E466451EF05F053EF10
:100AA00005F045EF05F0444A452A4250445C435066
:100AB0004558D8A05EEF05F060EF05F043EF05F074
:100AC0001200476E84824750ADEC05F08480000E22
:100AD000436E030E426E3DEC05F08492000E436EB1
:100AE000030E426E3DEC05F084821200476E848254
:100AF0004750ADEC05F08490000E436E030E426E3D
:100B00003DEC05F08492000E436E030E426E3DEC08
:100B100005F0848212008EEF05F041064150800AF4
:100B20007F0FD8B096EF05F098EF05F08DEF05F048
:100B3000120000EE01F0410EEE6AE806FDE1000E43
:100B4000F86E000189EF04F08BEC05F044C042F030
:100B500045C043F0B1EC05F01200426E42C083FF85
:080B60001200B1EF05F01200D4
:020000040020DA
:08000000FFFFFFFFFFFFFFFF00
:020000040030CA
:0E000000290C181EFF8180FF0FC00FE00F407B
:00000001FF
